:1000000098EF05F0F76A140FF66E000EF72209005C
:10001000F5501200280C0106204C6973746F204FB4
:100020006B6B202E2E2E20000C54656D7032203DFF
:100030002025322E3267DF43000050494344454DAE
:100040002054656D7032203D2025332E3266206F9E
:10005000430A00002020204C41424F5241544F524D
:10006000494F0000EA6A190EE96EEF500EE0010EEA
:10007000016E006A002EFED7012EFBD74A0E006EDD
:10008000002EFED700D0EF2EF2D7120020B002D003
:100090008A9001D08A80939020B202D08A9201D0B7
:1000A0008A82939220B402D08A9401D08A84939455
:1000B00020B602D08A9601D08A8693960000939C3F
:1000C0008A8C00D0939C8A9C120093988A98130E75
:1000D000006E002EFED700D01D5203E093988A8850
:1000E00002D093988A980000939C8A9C1E381F6EB9
:1000F0000F0E1F161FC020F0C9DF1E500F0B1F6E02
:10010000206EC4DF120093988A98939C8A9C0F0EED
:10011000196EA8DF076A0750020808E3030E206E75
:10012000B5DF050E196E9EDF072AF5D7020E206E89
:10013000ADDF076A075003080CE3036A075062DF6C
:10014000086E1D6A1E6EC1DF050E196E8BDF072A51
:10015000F1D7B0EF05F01A2C01D003D0400E1B6E82
:1001600001D01B6A010E195C1B261B5080091C6EF6
:100170001D6A1E6EAADF120018500C0A05E0060A5E
:100180000BE0020A0FE013D01D6A010E1E6E9DDF08
:10019000020E196E67DF10D0010E196E020E1A6E74
:1001A000DADF0AD01D6A100E1E6E8FDF05D0010E39
:1001B0001D6E18C01EF089DF12000900F5520CE018
:1001C000F6CF07F0F7CF08F0F5CF18F0D5DF07C06E
:1001D000F6FF08C0F7FFF1D712008E0E006E18C0B0
:1001E00001F017C002F0036A18AE05D0011E021E0E
:1001F000022A01E1012A015209E102C001F0026A6A
:10020000080E005E015202E1006A0AD0D89001BED9
:1002100004D0023601360006F9D718BE01D0019E7F
:100220001AEF03F01B50D8B471D0006E1F50D8B431
:100230006DD0002604E3810E002668E204D07F0E14
:10024000005E64E363E01CC023F02050231A1C8E80
:10025000208E1E502202F4CF25F01D502102F4CF33
:1002600003F0F3CF24F02202F3502526F450242289
:10027000000E03221E502102F3502526F4502422A2
:10028000000E026A032202221C502202F35024268E
:10029000F4500322000E02221C502102F3500326C8
:1002A000F4500222000E016A01221E502002F35077
:1002B0002426F4500322000E022201221D502002A7
:1002C000F3500326F4500222000E01221C5020029B
:1002D000F3500226F4500122002A01BE05D0243634
:1002E0000336023601360006000E24AE0AD0032A79
:1002F00002220122015005E1025003E1035001E115
:10030000002A23BE018E23AE019E04D0006A016A3A
:10031000026A036A12008E0E006E19C001F018C046
:1003200002F0036A015209E102C001F0026A080EFC
:10033000005E015202E1006A08D0D89001BE04D0EC
:10034000023601360006F9D7019E49EF03F0800E10
:10035000D8B21D1A226A236A19C021F01D50211A31
:100360001850D8B4DCD0206E006E1C50D8B4E0D049
:10037000205ED8B481D03DE31DC026F0268E1EC07D
:1003800025F01FC024F0236AD8902632253224326B
:100390002332202EF8D721AE03D02280DDD0229048
:1003A00020902288EA6A1B0EE96EE9D0229821BECD
:1003B0000AD020A013D02632253224322332002A3C
:1003C000D8B4C5D00BD026BE0CD0D8902336243656
:1003D000253626360006D8B4BAD0F5D7228C6BD095
:1003E000229C19C021F019AE02D0268EA9D0269EDB
:1003F000A7D01CC020F01CC000F01850205E19C00F
:1004000026F0268E1AC025F01BC024F0236AD8904F
:100410002632253224322332202EF8D721AE03D0C3
:1004200022829AD022922090228AEA6A1F0EE96ED6
:10043000A6D0229A21BE0AD020A013D0263225327F
:1004400024322332002AD8B482D00BD026BE0CD05E
:10045000D89023362436253626360006D8B477D0F1
:10046000F5D7228E28D0229E1DC021F01DAE02D0CD
:10047000268E66D0269E64D01DC026F0268E1EC015
:1004800025F01FC024F021AE04D0269E228464D023
:100490002294236A2090EA6A1B0EE96E70D021BE76
:1004A0001CD019C021F020A006D0263225322432DB
:1004B0002332002A4CE023AE0BD0242A09E1252A5E
:1004C00007E1262A05E1263225322432002A3FE0C0
:1004D00022BC86D722BEC7D71CD0800E261A26AED5
:1004E00004D03AD01DC021F00AD019C021F0265204
:1004F00006E1255204E1245202E1006A21D026BE21
:1005000008D0D8902336243625362636002EF7D745
:100510001ED021AE02D0268E13D0269E11D01CC034
:1005200000F01DC026F01EC025F01FC024F008D02A
:1005300018C000F019C026F01AC025F01BC024F026
:1005400026C001F025C002F024C003F034D0006AB8
:10055000016A026A036A2FD0236A241E251E261E02
:10056000231E232A05E1242A03E1252A01E1262A64
:1005700022B015D722B256D722B48AD7B3D7EF50BC
:10058000242605E3252A03E1262AD8B42080ED524B
:10059000EF50252603E3262AD8B42080ED52EF50F1
:1005A000EFBE01D0800A2626D8B0208022B8FED621
:1005B00022BA3FD774D71200086A076A096A0A6A22
:1005C0000E6A0D6A0C6A0B6A126A116A106A0F6A67
:1005D000C69A949A94889496200EC66E400EC76E62
:1005E00092948994C950C96AC730FEE3C9CF0AF012
:1005F000C950C96AC730FEE3C9CF09F09294898413
:100600000AC008F009C007F00830036E0730026E18
:1006100003320232033202321F0E031602C007F009
:1006200003C008F007500F0B006E036A176E03C07B
:1006300018F0D3D503C01AF002C019F001C018F0A9
:1006400000C017F003C01EF002C01DF001C01CF076
:1006500000C01BF0226A216A206A7B0E1F6EE2DD59
:1006600003C00EF002C00DF001C00CF000C00BF092
:100670000830036E0730026E033202320332023258
:10068000033202320F0E031602C018F003C019F035
:1006900042D603C012F002C011F001C010F000C039
:1006A0000FF0D89212C01BF011C01AF010C019F050
:1006B0000FC018F00EC01FF00DC01EF00CC01DF0D2
:1006C0000BC01CF044DE03C016F002C015F001C0E0
:1006D00014F000C013F013C000F014C001F015C0F6
:1006E00002F016C003F012000900F6CF0CF0F7CFAD
:1006F0000DF0F5CF18F040DD0CC0F6FF0DC0F7FF90
:100700000B2EF2D7D7EF05F01850B608186E036A13
:1007100019C01CF0198ED89019321A321B320332CC
:10072000023201320032182EF6D71CAE0BD0001E5A
:10073000011E021E031E002AD8B4012AD8B4022AC0
:10074000D8B4032A1200D8B203D0EA6A200EE96EA8
:10075000006A016A026A036A206A216A226A236ABD
:100760001F501E101D101C102CE0200E246ED8905F
:10077000183619361A361B362036213622362336DD
:100780001F50235C08E11E50225C05E11D50215CD6
:1007900002E11C50205C0FE31C50205E1D50D8A0CD
:1007A0001D3C215E1E50D8A01E3C225E1F50D8A0CA
:1007B0001F3C235ED8800036013602360336242ED5
:1007C000D6D720C0EFFF21C0ECFF22C0ECFF23C032
:1007D000ECFF1200E950106E0F50126E19E00EC0BF
:1007E0001EF00DC01DF00CC01CF00BC01BF0226AE7
:1007F000216A200E206E820E1F6E14DD03C00EF0E3
:1008000002C00DF001C00CF000C00BF0122EE7D7B3
:100810007E0E006E016A0CBE018E026A036AD892D7
:100820000EC01BF00DC01AF00CC019F00BC018F070
:1008300003C01FF002C01EF001C01DF01C6E87DD5A
:1008400003C00EF002C00DF001C00CF000C00BF0B0
:100850000EC01BF00DC01AF00CC019F00BC018F040
:1008600053DF03C00EF002C00DF001C00CF000C059
:100870000BF00EAE0DD01006108A0B1E0C1E0D1EB6
:100880000E1E0B2AD8B40C2AD8B40D2AD8B40E2ABE
:100890003B0E176E9A0E166ECA0E156E146A0A0E6D
:1008A000126E0F50D8B4102AD882EA6A0B0EE96E85
:1008B0000EC01BF00DC01AF00CC019F00BC018F0E0
:1008C00017C01FF016C01EF015C01DF014C01CF09C
:1008D0003ADF015000520FE10F28125C0CE010507B
:1008E0000CE00F0B125C01E037E210BE35D010BCFB
:1008F00004D0200E2DD0200E101610AA0CD0109A65
:100900000F50D8A410060050106E2D0E186E34DC57
:100910001050006E106A0F50125C0AE10050106E09
:100920002E0E186E29DC1050006E200E1016000ED0
:10093000300E10AA0DD0109A0F50D8A410060050F7
:10094000106E2D0E186E18DC1050006E106A300EEE
:10095000002600C018F010DCD89217C01BF016C09B
:100960001AF015C019F014C018F01F6A1E6A1D6A2B
:100970000A0E1C6EE8DE03C017F002C016F001C0BC
:1009800015F000C014F0122E8FD7E4EF05F0090027
:10099000F6CF0CF0F7CF0DF0F5509EA8FED7AD6E58
:1009A0000CC0F6FF0DC0F7FF0B2EF1D71200E95077
:1009B000106E0F50126E19E00EC01EF00DC01DF02B
:1009C0000CC01CF00BC01BF0226A216A200E206EA6
:1009D000820E1F6E27DC03C00EF002C00DF001C0B6
:1009E0000CF000C00BF0122EE7D70EC01BF00DC0AC
:1009F0001AF00CC019F00BC018F086DE03C00EF020
:100A000002C00DF001C00CF000C00BF00EAE0DD016
:100A10001006108A0B1E0C1E0D1E0E1E0B2AD8B4BB
:100A20000C2AD8B40D2AD8B40E2A3B0E176E9A0E93
:100A3000166ECA0E156E146A0A0E126E0F50D8B4D6
:100A4000102AD882EA6A0B0EE96E0EC01BF00DC0A8
:100A50001AF00CC019F00BC018F017C01FF016C028
:100A60001EF015C01DF014C01CF06DDE01500052C8
:100A70000FE10F28125C0CE010500CE00F0B125C21
:100A800001E03BE210BE39D010BC04D0200E30D0C3
:100A9000200E101610AA0DD0109A0F50D8A41006D0
:100AA0000050106E2D0E9EA8FED7AD6E1050006E39
:100AB000106A0F50125C0BE10050106E2E0E9EA8B3
:100AC000FED7AD6E1050006E200E1016000E300EC8
:100AD00010AA0ED0109A0F50D8A410060050106E15
:100AE0002D0E9EA8FED7AD6E1050006E106A300E0F
:100AF000002600509EA8FED7AD6ED89217C01BF0FE
:100B000016C01AF015C019F014C018F01F6A1E6A3A
:100B10001D6A0A0E1C6E17DE03C017F002C016F025
:100B200001C015F000C014F0122E8BD708EF06F0AC
:100B3000F86AD09EB896190EAF6EA60EAC6E900EE7
:100B4000AB6E066A056A000E7E6EC198C19A7F5030
:100B5000E00B7F6E799A79987A6A7B6A83EF00F06E
:100B60009290899092928982180EF66E000EF76E1E
:100B7000DDEC00F0020E076EFA0E196E32EC00F09A
:100B8000072EFAD7010E196E1A6EABEC00F014DDC9
:100B900003C00AF002C009F001C008F000C007F06D
:100BA000280EF66E000EF76E090E0B6E9DD5890E9F
:100BB000E96E0AC00EF009C00DF008C00CF007C0C5
:100BC0000BF0020E0F6E06D6DF0E186EBCEC00F0B6
:100BD000430E186EBCEC00F0EFDC03C00AF002C05C
:100BE00009F001C008F000C007F03A0EF66E000EE2
:100BF000F76E0F0E0B6ECBDE020EE96E0AC00EF022
:100C000009C00DF008C00CF007C00BF00F6ECFD676
:100C10004E0EF66E000EF76E040E0B6EB8DE010E71
:100C2000196E020E1A6EABEC00F0540EF66E000E4A
:100C3000F76EDDEC00F0020E076EFA0E196E32EC64
:100C400000F0072EFAD792908970020E076EFA0E06
:100C5000196E32EC00F0072EFAD79292897292D771
:020C600003008F
:020000040030CA
:0E00000000C21E1E008F81000FC00FE00F40D7
:00000001FF
;PIC18F25K20
;CRC=B729  CREATED="25-ene.-21 13:45"
